{
  "_format": "hh-sol-artifact-1",
  "contractName": "L2Source",
  "sourceName": "contracts/L2Source.sol",
  "abi": [
    {
      "inputs": [
        {
          "internalType": "uint256",
          "name": "_remoteChainId",
          "type": "uint256"
        },
        {
          "internalType": "contract iL2Bridge",
          "name": "_l2Bridge",
          "type": "address"
        },
        {
          "internalType": "address[]",
          "name": "tokenAddresses",
          "type": "address[]"
        },
        {
          "internalType": "address[]",
          "name": "tokenL1Addresses",
          "type": "address[]"
        },
        {
          "internalType": "address[]",
          "name": "tokenRemoteChainAddresses",
          "type": "address[]"
        }
      ],
      "stateMutability": "nonpayable",
      "type": "constructor"
    },
    {
      "anonymous": false,
      "inputs": [
        {
          "indexed": true,
          "internalType": "address",
          "name": "previousOwner",
          "type": "address"
        },
        {
          "indexed": true,
          "internalType": "address",
          "name": "newOwner",
          "type": "address"
        }
      ],
      "name": "OwnershipTransferred",
      "type": "event"
    },
    {
      "anonymous": false,
      "inputs": [
        {
          "indexed": true,
          "internalType": "address",
          "name": "tokenAddress",
          "type": "address"
        },
        {
          "indexed": false,
          "internalType": "address",
          "name": "destination",
          "type": "address"
        },
        {
          "indexed": false,
          "internalType": "uint256",
          "name": "amount",
          "type": "uint256"
        },
        {
          "indexed": false,
          "internalType": "uint256",
          "name": "fee",
          "type": "uint256"
        },
        {
          "indexed": false,
          "internalType": "uint256",
          "name": "startTime",
          "type": "uint256"
        },
        {
          "indexed": false,
          "internalType": "uint256",
          "name": "feeRampup",
          "type": "uint256"
        },
        {
          "indexed": false,
          "internalType": "uint256",
          "name": "transferID",
          "type": "uint256"
        },
        {
          "indexed": true,
          "internalType": "address",
          "name": "self",
          "type": "address"
        }
      ],
      "name": "TransferInitiated",
      "type": "event"
    },
    {
      "inputs": [
        {
          "internalType": "uint256",
          "name": "amount",
          "type": "uint256"
        }
      ],
      "name": "getAmountPlusFee",
      "outputs": [
        {
          "internalType": "uint256",
          "name": "",
          "type": "uint256"
        }
      ],
      "stateMutability": "pure",
      "type": "function"
    },
    {
      "inputs": [
        {
          "internalType": "uint256",
          "name": "transferID",
          "type": "uint256"
        },
        {
          "internalType": "bytes",
          "name": "message",
          "type": "bytes"
        }
      ],
      "name": "getMessageProof",
      "outputs": [
        {
          "internalType": "bytes32",
          "name": "rootHash",
          "type": "bytes32"
        },
        {
          "internalType": "uint256",
          "name": "branchMask",
          "type": "uint256"
        },
        {
          "internalType": "bytes32[]",
          "name": "siblings",
          "type": "bytes32[]"
        }
      ],
      "stateMutability": "view",
      "type": "function"
    },
    {
      "inputs": [],
      "name": "getRootHashKey",
      "outputs": [
        {
          "internalType": "bytes32",
          "name": "",
          "type": "bytes32"
        }
      ],
      "stateMutability": "view",
      "type": "function"
    },
    {
      "inputs": [],
      "name": "owner",
      "outputs": [
        {
          "internalType": "address",
          "name": "",
          "type": "address"
        }
      ],
      "stateMutability": "view",
      "type": "function"
    },
    {
      "inputs": [],
      "name": "renounceOwnership",
      "outputs": [],
      "stateMutability": "nonpayable",
      "type": "function"
    },
    {
      "inputs": [
        {
          "internalType": "address",
          "name": "_tokenAddress",
          "type": "address"
        },
        {
          "internalType": "address",
          "name": "_tokenL1Address",
          "type": "address"
        },
        {
          "internalType": "address",
          "name": "_tokenRemoteChainAddress",
          "type": "address"
        }
      ],
      "name": "setToken",
      "outputs": [],
      "stateMutability": "nonpayable",
      "type": "function"
    },
    {
      "inputs": [
        {
          "internalType": "address",
          "name": "",
          "type": "address"
        }
      ],
      "name": "tokenBountyPool",
      "outputs": [
        {
          "internalType": "uint256",
          "name": "",
          "type": "uint256"
        }
      ],
      "stateMutability": "view",
      "type": "function"
    },
    {
      "inputs": [
        {
          "internalType": "address",
          "name": "",
          "type": "address"
        }
      ],
      "name": "tokenL1Address",
      "outputs": [
        {
          "internalType": "address",
          "name": "",
          "type": "address"
        }
      ],
      "stateMutability": "view",
      "type": "function"
    },
    {
      "inputs": [
        {
          "internalType": "address",
          "name": "",
          "type": "address"
        }
      ],
      "name": "tokenRemoteChainAddress",
      "outputs": [
        {
          "internalType": "address",
          "name": "",
          "type": "address"
        }
      ],
      "stateMutability": "view",
      "type": "function"
    },
    {
      "inputs": [
        {
          "internalType": "address",
          "name": "newOwner",
          "type": "address"
        }
      ],
      "name": "transferOwnership",
      "outputs": [],
      "stateMutability": "nonpayable",
      "type": "function"
    },
    {
      "inputs": [
        {
          "internalType": "address",
          "name": "tokenAddress",
          "type": "address"
        }
      ],
      "name": "transferTokenBalanceToRemote",
      "outputs": [],
      "stateMutability": "nonpayable",
      "type": "function"
    },
    {
      "inputs": [],
      "name": "updateRemoteRoot",
      "outputs": [],
      "stateMutability": "nonpayable",
      "type": "function"
    },
    {
      "inputs": [
        {
          "components": [
            {
              "internalType": "address",
              "name": "tokenAddress",
              "type": "address"
            },
            {
              "internalType": "address",
              "name": "destination",
              "type": "address"
            },
            {
              "internalType": "uint256",
              "name": "amount",
              "type": "uint256"
            },
            {
              "internalType": "uint256",
              "name": "fee",
              "type": "uint256"
            },
            {
              "internalType": "uint256",
              "name": "startTime",
              "type": "uint256"
            },
            {
              "internalType": "uint256",
              "name": "feeRampup",
              "type": "uint256"
            }
          ],
          "internalType": "struct L2Source.TransferData",
          "name": "transferData",
          "type": "tuple"
        }
      ],
      "name": "withdraw",
      "outputs": [],
      "stateMutability": "payable",
      "type": "function"
    }
  ],
  "bytecode": "0x60806040523480156200001157600080fd5b506040516200303a3803806200303a833981810160405281019062000037919062000534565b620000576200004b620001c860201b60201c565b620001d060201b60201c565b600180819055508151835114801562000071575080518351145b6200007b57600080fd5b8460028190555083600360006101000a81548173ffffffffffffffffffffffffffffffffffffffff021916908373ffffffffffffffffffffffffffffffffffffffff16021790555060005b8351811015620001bc57620001a68482815181106200010e577f4e487b7100000000000000000000000000000000000000000000000000000000600052603260045260246000fd5b602002602001015184838151811062000150577f4e487b7100000000000000000000000000000000000000000000000000000000600052603260045260246000fd5b602002602001015184848151811062000192577f4e487b7100000000000000000000000000000000000000000000000000000000600052603260045260246000fd5b60200260200101516200029460201b60201c565b8080620001b3906200073b565b915050620000c6565b5050505050506200086f565b600033905090565b60008060009054906101000a900473ffffffffffffffffffffffffffffffffffffffff169050816000806101000a81548173ffffffffffffffffffffffffffffffffffffffff021916908373ffffffffffffffffffffffffffffffffffffffff1602179055508173ffffffffffffffffffffffffffffffffffffffff168173ffffffffffffffffffffffffffffffffffffffff167f8be0079c531659141344cd1fd0a4f28419497f9722a3daafe3b4186f6b6457e060405160405180910390a35050565b620002a4620001c860201b60201c565b73ffffffffffffffffffffffffffffffffffffffff16620002ca6200042460201b60201c565b73ffffffffffffffffffffffffffffffffffffffff161462000323576040517f08c379a00000000000000000000000000000000000000000000000000000000081526004016200031a9062000628565b60405180910390fd5b81600460008573ffffffffffffffffffffffffffffffffffffffff1673ffffffffffffffffffffffffffffffffffffffff16815260200190815260200160002060006101000a81548173ffffffffffffffffffffffffffffffffffffffff021916908373ffffffffffffffffffffffffffffffffffffffff16021790555080600560008573ffffffffffffffffffffffffffffffffffffffff1673ffffffffffffffffffffffffffffffffffffffff16815260200190815260200160002060006101000a81548173ffffffffffffffffffffffffffffffffffffffff021916908373ffffffffffffffffffffffffffffffffffffffff160217905550505050565b60008060009054906101000a900473ffffffffffffffffffffffffffffffffffffffff16905090565b6000620004646200045e8462000673565b6200064a565b905080838252602082019050828560208602820111156200048457600080fd5b60005b85811015620004b857816200049d8882620004c2565b84526020840193506020830192505060018101905062000487565b5050509392505050565b600081519050620004d38162000821565b92915050565b600082601f830112620004eb57600080fd5b8151620004fd8482602086016200044d565b91505092915050565b60008151905062000517816200083b565b92915050565b6000815190506200052e8162000855565b92915050565b600080600080600060a086880312156200054d57600080fd5b60006200055d888289016200051d565b9550506020620005708882890162000506565b945050604086015167ffffffffffffffff8111156200058e57600080fd5b6200059c88828901620004d9565b935050606086015167ffffffffffffffff811115620005ba57600080fd5b620005c888828901620004d9565b925050608086015167ffffffffffffffff811115620005e657600080fd5b620005f488828901620004d9565b9150509295509295909350565b600062000610602083620006a2565b91506200061d82620007f8565b602082019050919050565b60006020820190508181036000830152620006438162000601565b9050919050565b60006200065662000669565b905062000664828262000705565b919050565b6000604051905090565b600067ffffffffffffffff821115620006915762000690620007b8565b5b602082029050602081019050919050565b600082825260208201905092915050565b6000620006c082620006db565b9050919050565b6000620006d482620006b3565b9050919050565b600073ffffffffffffffffffffffffffffffffffffffff82169050919050565b6000819050919050565b6200071082620007e7565b810181811067ffffffffffffffff82111715620007325762000731620007b8565b5b80604052505050565b60006200074882620006fb565b91507fffffffffffffffffffffffffffffffffffffffffffffffffffffffffffffffff8214156200077e576200077d62000789565b5b600182019050919050565b7f4e487b7100000000000000000000000000000000000000000000000000000000600052601160045260246000fd5b7f4e487b7100000000000000000000000000000000000000000000000000000000600052604160045260246000fd5b6000601f19601f8301169050919050565b7f4f776e61626c653a2063616c6c6572206973206e6f7420746865206f776e6572600082015250565b6200082c81620006b3565b81146200083857600080fd5b50565b6200084681620006c7565b81146200085257600080fd5b50565b6200086081620006fb565b81146200086c57600080fd5b50565b6127bb806200087f6000396000f3fe6080604052600436106100c25760003560e01c8063a1f2fba11161007f578063adc372f411610059578063adc372f414610247578063c001b05914610270578063f2fde38b146102af578063f92d9089146102d8576100c2565b8063a1f2fba1146101a4578063a1f7806c146101cd578063a35a16ed1461020a576100c2565b8063021fc4e3146100c75780630d6531c1146100de5780633889b6bb1461011b5780634b5fd5d114610137578063715018a6146101625780638da5cb5b14610179575b600080fd5b3480156100d357600080fd5b506100dc610315565b005b3480156100ea57600080fd5b5061010560048036038101906101009190611902565b610462565b604051610112919061214f565b60405180910390f35b61013560048036038101906101309190611a33565b61047a565b005b34801561014357600080fd5b5061014c6108fb565b6040516101599190611f9d565b60405180910390f35b34801561016e57600080fd5b50610177610a74565b005b34801561018557600080fd5b5061018e610afc565b60405161019b9190611dc2565b60405180910390f35b3480156101b057600080fd5b506101cb60048036038101906101c6919061192b565b610b25565b005b3480156101d957600080fd5b506101f460048036038101906101ef9190611a5c565b610ca2565b604051610201919061214f565b60405180910390f35b34801561021657600080fd5b50610231600480360381019061022c9190611902565b610cd9565b60405161023e9190611dc2565b60405180910390f35b34801561025357600080fd5b5061026e60048036038101906102699190611902565b610d0c565b005b34801561027c57600080fd5b5061029760048036038101906102929190611aae565b611440565b6040516102a693929190611fe1565b60405180910390f35b3480156102bb57600080fd5b506102d660048036038101906102d19190611902565b611508565b005b3480156102e457600080fd5b506102ff60048036038101906102fa9190611902565b611600565b60405161030c9190611dc2565b60405180910390f35b6000600167ffffffffffffffff811115610358577f4e487b7100000000000000000000000000000000000000000000000000000000600052604160045260246000fd5b6040519080825280602002602001820160405280156103865781602001602082028036833780820191505090505b509050600254816000815181106103c6577f4e487b7100000000000000000000000000000000000000000000000000000000600052603260045260246000fd5b602002602001018181525050600360009054906101000a900473ffffffffffffffffffffffffffffffffffffffff1673ffffffffffffffffffffffffffffffffffffffff1663c6c2c832826040518263ffffffff1660e01b815260040161042d9190611f7b565b600060405180830381600087803b15801561044757600080fd5b505af115801561045b573d6000803e3d6000fd5b5050505050565b60066020528060005260406000206000915090505481565b600260015414156104c0576040517f08c379a00000000000000000000000000000000000000000000000000000000081526004016104b79061212f565b60405180910390fd5b600260018190555060006104d78260400151610ca2565b905060008260400151826104eb91906123ed565b9050600073ffffffffffffffffffffffffffffffffffffffff16836000015173ffffffffffffffffffffffffffffffffffffffff16141561056d57813414610568576040517f08c379a000000000000000000000000000000000000000000000000000000000815260040161055f9061210f565b60405180910390fd5b610711565b81836000015173ffffffffffffffffffffffffffffffffffffffff1663dd62ed3e33306040518363ffffffff1660e01b81526004016105ad929190611ddd565b60206040518083038186803b1580156105c557600080fd5b505afa1580156105d9573d6000803e3d6000fd5b505050506040513d601f19601f820116820180604052508101906105fd9190611a85565b101561063e576040517f08c379a00000000000000000000000000000000000000000000000000000000081526004016106359061210f565b60405180910390fd5b826000015173ffffffffffffffffffffffffffffffffffffffff166323b872dd3330856040518463ffffffff1660e01b815260040161067f93929190611e59565b602060405180830381600087803b15801561069957600080fd5b505af11580156106ad573d6000803e3d6000fd5b505050506040513d601f19601f820116820180604052508101906106d1919061197a565b610710576040517f08c379a0000000000000000000000000000000000000000000000000000000008152600401610707906120ef565b60405180910390fd5b5b6000836000015184602001518560400151866060015187608001518860a0015160405160200161074696959493929190611e90565b60405160208183030381529060405290506000600360009054906101000a900473ffffffffffffffffffffffffffffffffffffffff1673ffffffffffffffffffffffffffffffffffffffff16639372c4ab836002546040518363ffffffff1660e01b81526004016107b892919061201f565b602060405180830381600087803b1580156107d257600080fd5b505af11580156107e6573d6000803e3d6000fd5b505050506040513d601f19601f8201168201806040525081019061080a9190611a85565b90508260066000876000015173ffffffffffffffffffffffffffffffffffffffff1673ffffffffffffffffffffffffffffffffffffffff168152602001908152602001600020600082825461085f919061230c565b925050819055503073ffffffffffffffffffffffffffffffffffffffff16856000015173ffffffffffffffffffffffffffffffffffffffff167f291e499805630270836bdd44f74fcf0226bd5f0068602b284316b98dab91582f8760200151886040015189606001518a608001518b60a00151886040516108e596959493929190611f1a565b60405180910390a3505050506001808190555050565b600080600360009054906101000a900473ffffffffffffffffffffffffffffffffffffffff1673ffffffffffffffffffffffffffffffffffffffff166380759f1f6040518163ffffffff1660e01b815260040160206040518083038186803b15801561096657600080fd5b505afa15801561097a573d6000803e3d6000fd5b505050506040513d601f19601f8201168201806040525081019061099e91906119a3565b90506000600360009054906101000a900473ffffffffffffffffffffffffffffffffffffffff1673ffffffffffffffffffffffffffffffffffffffff1663564b81ef6040518163ffffffff1660e01b815260040160206040518083038186803b158015610a0a57600080fd5b505afa158015610a1e573d6000803e3d6000fd5b505050506040513d601f19601f82011682018060405250810190610a429190611a85565b90508181604051602001610a57929190611fb8565b604051602081830303815290604052805190602001209250505090565b610a7c611633565b73ffffffffffffffffffffffffffffffffffffffff16610a9a610afc565b73ffffffffffffffffffffffffffffffffffffffff1614610af0576040517f08c379a0000000000000000000000000000000000000000000000000000000008152600401610ae7906120cf565b60405180910390fd5b610afa600061163b565b565b60008060009054906101000a900473ffffffffffffffffffffffffffffffffffffffff16905090565b610b2d611633565b73ffffffffffffffffffffffffffffffffffffffff16610b4b610afc565b73ffffffffffffffffffffffffffffffffffffffff1614610ba1576040517f08c379a0000000000000000000000000000000000000000000000000000000008152600401610b98906120cf565b60405180910390fd5b81600460008573ffffffffffffffffffffffffffffffffffffffff1673ffffffffffffffffffffffffffffffffffffffff16815260200190815260200160002060006101000a81548173ffffffffffffffffffffffffffffffffffffffff021916908373ffffffffffffffffffffffffffffffffffffffff16021790555080600560008573ffffffffffffffffffffffffffffffffffffffff1673ffffffffffffffffffffffffffffffffffffffff16815260200190815260200160002060006101000a81548173ffffffffffffffffffffffffffffffffffffffff021916908373ffffffffffffffffffffffffffffffffffffffff160217905550505050565b6000612710600560ff16612710610cb991906122d4565b61ffff1683610cc89190612393565b610cd29190612362565b9050919050565b60056020528060005260406000206000915054906101000a900473ffffffffffffffffffffffffffffffffffffffff1681565b60026001541415610d52576040517f08c379a0000000000000000000000000000000000000000000000000000000008152600401610d499061212f565b60405180910390fd5b6002600181905550600073ffffffffffffffffffffffffffffffffffffffff168173ffffffffffffffffffffffffffffffffffffffff161415611036576000600660008373ffffffffffffffffffffffffffffffffffffffff1673ffffffffffffffffffffffffffffffffffffffff168152602001908152602001600020549050600047905060008282610de691906123ed565b905060008111610e2b576040517f08c379a0000000000000000000000000000000000000000000000000000000008152600401610e22906120af565b60405180910390fd5b600360009054906101000a900473ffffffffffffffffffffffffffffffffffffffff1673ffffffffffffffffffffffffffffffffffffffff16631b4bb66e8286600460008973ffffffffffffffffffffffffffffffffffffffff1673ffffffffffffffffffffffffffffffffffffffff16815260200190815260200160002060009054906101000a900473ffffffffffffffffffffffffffffffffffffffff16600560008a73ffffffffffffffffffffffffffffffffffffffff1673ffffffffffffffffffffffffffffffffffffffff16815260200190815260200160002060009054906101000a900473ffffffffffffffffffffffffffffffffffffffff16866002546040518763ffffffff1660e01b8152600401610f4f959493929190611e06565b6000604051808303818588803b158015610f6857600080fd5b505af1158015610f7c573d6000803e3d6000fd5b505050505060003373ffffffffffffffffffffffffffffffffffffffff1684604051610fa790611dad565b60006040518083038185875af1925050503d8060008114610fe4576040519150601f19603f3d011682016040523d82523d6000602084013e610fe9565b606091505b505090508061102d576040517f08c379a00000000000000000000000000000000000000000000000000000000081526004016110249061208f565b60405180910390fd5b505050506113f1565b6000600660008373ffffffffffffffffffffffffffffffffffffffff1673ffffffffffffffffffffffffffffffffffffffff16815260200190815260200160002054905060008273ffffffffffffffffffffffffffffffffffffffff166370a08231306040518263ffffffff1660e01b81526004016110b59190611dc2565b60206040518083038186803b1580156110cd57600080fd5b505afa1580156110e1573d6000803e3d6000fd5b505050506040513d601f19601f820116820180604052508101906111059190611a85565b90506000828261111591906123ed565b90506000811161115a576040517f08c379a00000000000000000000000000000000000000000000000000000000081526004016111519061206f565b60405180910390fd5b8373ffffffffffffffffffffffffffffffffffffffff1663a9059cbb600360009054906101000a900473ffffffffffffffffffffffffffffffffffffffff16836040518363ffffffff1660e01b81526004016111b7929190611ef1565b602060405180830381600087803b1580156111d157600080fd5b505af11580156111e5573d6000803e3d6000fd5b505050506040513d601f19601f82011682018060405250810190611209919061197a565b50600360009054906101000a900473ffffffffffffffffffffffffffffffffffffffff1673ffffffffffffffffffffffffffffffffffffffff16631b4bb66e85600460008873ffffffffffffffffffffffffffffffffffffffff1673ffffffffffffffffffffffffffffffffffffffff16815260200190815260200160002060009054906101000a900473ffffffffffffffffffffffffffffffffffffffff16600560008973ffffffffffffffffffffffffffffffffffffffff1673ffffffffffffffffffffffffffffffffffffffff16815260200190815260200160002060009054906101000a900473ffffffffffffffffffffffffffffffffffffffff16856002546040518663ffffffff1660e01b815260040161132d959493929190611e06565b600060405180830381600087803b15801561134757600080fd5b505af115801561135b573d6000803e3d6000fd5b505050508373ffffffffffffffffffffffffffffffffffffffff1663a9059cbb33856040518363ffffffff1660e01b815260040161139a929190611ef1565b602060405180830381600087803b1580156113b457600080fd5b505af11580156113c8573d6000803e3d6000fd5b505050506040513d601f19601f820116820180604052508101906113ec919061197a565b505050505b6000600660008373ffffffffffffffffffffffffffffffffffffffff1673ffffffffffffffffffffffffffffffffffffffff168152602001908152602001600020819055506001808190555050565b6000806060600360009054906101000a900473ffffffffffffffffffffffffffffffffffffffff1673ffffffffffffffffffffffffffffffffffffffff1663e62b03ff86600254876040518463ffffffff1660e01b81526004016114a69392919061216a565b60006040518083038186803b1580156114be57600080fd5b505afa1580156114d2573d6000803e3d6000fd5b505050506040513d6000823e3d601f19601f820116820180604052508101906114fb91906119cc565b9250925092509250925092565b611510611633565b73ffffffffffffffffffffffffffffffffffffffff1661152e610afc565b73ffffffffffffffffffffffffffffffffffffffff1614611584576040517f08c379a000000000000000000000000000000000000000000000000000000000815260040161157b906120cf565b60405180910390fd5b600073ffffffffffffffffffffffffffffffffffffffff168173ffffffffffffffffffffffffffffffffffffffff1614156115f4576040517f08c379a00000000000000000000000000000000000000000000000000000000081526004016115eb9061204f565b60405180910390fd5b6115fd8161163b565b50565b60046020528060005260406000206000915054906101000a900473ffffffffffffffffffffffffffffffffffffffff1681565b600033905090565b60008060009054906101000a900473ffffffffffffffffffffffffffffffffffffffff169050816000806101000a81548173ffffffffffffffffffffffffffffffffffffffff021916908373ffffffffffffffffffffffffffffffffffffffff1602179055508173ffffffffffffffffffffffffffffffffffffffff168173ffffffffffffffffffffffffffffffffffffffff167f8be0079c531659141344cd1fd0a4f28419497f9722a3daafe3b4186f6b6457e060405160405180910390a35050565b600061171261170d846121cd565b6121a8565b9050808382526020820190508285602086028201111561173157600080fd5b60005b85811015611761578161174788826117fd565b845260208401935060208301925050600181019050611734565b5050509392505050565b600061177e611779846121f9565b6121a8565b90508281526020810184848401111561179657600080fd5b6117a1848285612481565b509392505050565b6000813590506117b881612729565b92915050565b600082601f8301126117cf57600080fd5b81516117df8482602086016116ff565b91505092915050565b6000815190506117f781612740565b92915050565b60008151905061180c81612757565b92915050565b600082601f83011261182357600080fd5b813561183384826020860161176b565b91505092915050565b600060c0828403121561184e57600080fd5b61185860c06121a8565b90506000611868848285016117a9565b600083015250602061187c848285016117a9565b6020830152506040611890848285016118d8565b60408301525060606118a4848285016118d8565b60608301525060806118b8848285016118d8565b60808301525060a06118cc848285016118d8565b60a08301525092915050565b6000813590506118e78161276e565b92915050565b6000815190506118fc8161276e565b92915050565b60006020828403121561191457600080fd5b6000611922848285016117a9565b91505092915050565b60008060006060848603121561194057600080fd5b600061194e868287016117a9565b935050602061195f868287016117a9565b9250506040611970868287016117a9565b9150509250925092565b60006020828403121561198c57600080fd5b600061199a848285016117e8565b91505092915050565b6000602082840312156119b557600080fd5b60006119c3848285016117fd565b91505092915050565b6000806000606084860312156119e157600080fd5b60006119ef868287016117fd565b9350506020611a00868287016118ed565b925050604084015167ffffffffffffffff811115611a1d57600080fd5b611a29868287016117be565b9150509250925092565b600060c08284031215611a4557600080fd5b6000611a538482850161183c565b91505092915050565b600060208284031215611a6e57600080fd5b6000611a7c848285016118d8565b91505092915050565b600060208284031215611a9757600080fd5b6000611aa5848285016118ed565b91505092915050565b60008060408385031215611ac157600080fd5b6000611acf858286016118d8565b925050602083013567ffffffffffffffff811115611aec57600080fd5b611af885828601611812565b9150509250929050565b6000611b0e8383611bfd565b60208301905092915050565b6000611b268383611d8f565b60208301905092915050565b611b3b81612421565b82525050565b6000611b4c8261224a565b611b568185612285565b9350611b618361222a565b8060005b83811015611b92578151611b798882611b02565b9750611b848361226b565b925050600181019050611b65565b5085935050505092915050565b6000611baa82612255565b611bb48185612296565b9350611bbf8361223a565b8060005b83811015611bf0578151611bd78882611b1a565b9750611be283612278565b925050600181019050611bc3565b5085935050505092915050565b611c068161243f565b82525050565b611c158161243f565b82525050565b6000611c2682612260565b611c3081856122a7565b9350611c40818560208601612490565b611c4981612581565b840191505092915050565b6000611c616026836122c3565b9150611c6c82612592565b604082019050919050565b6000611c84601b836122c3565b9150611c8f826125e1565b602082019050919050565b6000611ca76014836122c3565b9150611cb28261260a565b602082019050919050565b6000611cca601b836122c3565b9150611cd582612633565b602082019050919050565b6000611ced6020836122c3565b9150611cf88261265c565b602082019050919050565b6000611d10602b836122c3565b9150611d1b82612685565b604082019050919050565b6000611d336000836122b8565b9150611d3e826126d4565b600082019050919050565b6000611d566011836122c3565b9150611d61826126d7565b602082019050919050565b6000611d79601f836122c3565b9150611d8482612700565b602082019050919050565b611d9881612477565b82525050565b611da781612477565b82525050565b6000611db882611d26565b9150819050919050565b6000602082019050611dd76000830184611b32565b92915050565b6000604082019050611df26000830185611b32565b611dff6020830184611b32565b9392505050565b600060a082019050611e1b6000830188611b32565b611e286020830187611b32565b611e356040830186611b32565b611e426060830185611d9e565b611e4f6080830184611d9e565b9695505050505050565b6000606082019050611e6e6000830186611b32565b611e7b6020830185611b32565b611e886040830184611d9e565b949350505050565b600060c082019050611ea56000830189611b32565b611eb26020830188611b32565b611ebf6040830187611d9e565b611ecc6060830186611d9e565b611ed96080830185611d9e565b611ee660a0830184611d9e565b979650505050505050565b6000604082019050611f066000830185611b32565b611f136020830184611d9e565b9392505050565b600060c082019050611f2f6000830189611b32565b611f3c6020830188611d9e565b611f496040830187611d9e565b611f566060830186611d9e565b611f636080830185611d9e565b611f7060a0830184611d9e565b979650505050505050565b60006020820190508181036000830152611f958184611b9f565b905092915050565b6000602082019050611fb26000830184611c0c565b92915050565b6000604082019050611fcd6000830185611c0c565b611fda6020830184611d9e565b9392505050565b6000606082019050611ff66000830186611c0c565b6120036020830185611d9e565b81810360408301526120158184611b41565b9050949350505050565b600060408201905081810360008301526120398185611c1b565b90506120486020830184611d9e565b9392505050565b6000602082019050818103600083015261206881611c54565b9050919050565b6000602082019050818103600083015261208881611c77565b9050919050565b600060208201905081810360008301526120a881611c9a565b9050919050565b600060208201905081810360008301526120c881611cbd565b9050919050565b600060208201905081810360008301526120e881611ce0565b9050919050565b6000602082019050818103600083015261210881611d03565b9050919050565b6000602082019050818103600083015261212881611d49565b9050919050565b6000602082019050818103600083015261214881611d6c565b9050919050565b60006020820190506121646000830184611d9e565b92915050565b600060608201905061217f6000830186611d9e565b61218c6020830185611d9e565b818103604083015261219e8184611c1b565b9050949350505050565b60006121b26121c3565b90506121be82826124c3565b919050565b6000604051905090565b600067ffffffffffffffff8211156121e8576121e7612552565b5b602082029050602081019050919050565b600067ffffffffffffffff82111561221457612213612552565b5b61221d82612581565b9050602081019050919050565b6000819050602082019050919050565b6000819050602082019050919050565b600081519050919050565b600081519050919050565b600081519050919050565b6000602082019050919050565b6000602082019050919050565b600082825260208201905092915050565b600082825260208201905092915050565b600082825260208201905092915050565b600081905092915050565b600082825260208201905092915050565b60006122df82612449565b91506122ea83612449565b92508261ffff03821115612301576123006124f4565b5b828201905092915050565b600061231782612477565b915061232283612477565b9250827fffffffffffffffffffffffffffffffffffffffffffffffffffffffffffffffff03821115612357576123566124f4565b5b828201905092915050565b600061236d82612477565b915061237883612477565b92508261238857612387612523565b5b828204905092915050565b600061239e82612477565b91506123a983612477565b9250817fffffffffffffffffffffffffffffffffffffffffffffffffffffffffffffffff04831182151516156123e2576123e16124f4565b5b828202905092915050565b60006123f882612477565b915061240383612477565b925082821015612416576124156124f4565b5b828203905092915050565b600061242c82612457565b9050919050565b60008115159050919050565b6000819050919050565b600061ffff82169050919050565b600073ffffffffffffffffffffffffffffffffffffffff82169050919050565b6000819050919050565b82818337600083830152505050565b60005b838110156124ae578082015181840152602081019050612493565b838111156124bd576000848401525b50505050565b6124cc82612581565b810181811067ffffffffffffffff821117156124eb576124ea612552565b5b80604052505050565b7f4e487b7100000000000000000000000000000000000000000000000000000000600052601160045260246000fd5b7f4e487b7100000000000000000000000000000000000000000000000000000000600052601260045260246000fd5b7f4e487b7100000000000000000000000000000000000000000000000000000000600052604160045260246000fd5b6000601f19601f8301169050919050565b7f4f776e61626c653a206e6577206f776e657220697320746865207a65726f206160008201527f6464726573730000000000000000000000000000000000000000000000000000602082015250565b7f436f6e747261637420546f6b656e2062616c616e636520697320300000000000600082015250565b7f4661696c656420746f2073656e64204574686572000000000000000000000000600082015250565b7f436f6e74726163742045746865722062616c616e636520697320300000000000600082015250565b7f4f776e61626c653a2063616c6c6572206973206e6f7420746865206f776e6572600082015250565b7f5472616e73616374696f6e206661696c65642e204661696c656420746f20747260008201527f616e736665722066756e64000000000000000000000000000000000000000000602082015250565b50565b7f496e73756666696369656e742066756e64000000000000000000000000000000600082015250565b7f5265656e7472616e637947756172643a207265656e7472616e742063616c6c00600082015250565b61273281612421565b811461273d57600080fd5b50565b61274981612433565b811461275457600080fd5b50565b6127608161243f565b811461276b57600080fd5b50565b61277781612477565b811461278257600080fd5b5056fea2646970667358221220fef758069ef8a434d23b7c53dad921dd7ccc4c82d0f3cc0c4ffebfbac1aac23564736f6c63430008040033",
  "linkReferences": {},
  "deployedLinkReferences": {}
}